:020000040000FA
:100000000C9463000C948B000C948B000C948B006C
:100010000C948B000C948B000C948B000C948B0034
:100020000C948B000C948B000C948B000C948B0024
:100030000C948B000C948B000C948B000C948B0014
:100040000C9450050C948B000C941E050C94F80431
:100050000C948B000C948B000C948B000C948B00F4
:100060000C948B000C948B000000000024002700EF
:100070002A0000000000250028002B0000000000DE
:1000800023002600290004040404040404040202DA
:100090000202020203030303030301020408102007
:1000A0004080010204081020010204081020000012
:1000B0000008000201000003040700000000000027
:1000C00000009A05190C11241FBECFEFD8E0DEBF47
:1000D000CDBF25E0A6EDB4E001C01D92A03BB20764
:1000E000E1F714E0A0E0B1E0EAECFCE102C0059029
:1000F0000D92A63DB107D9F710E0C2E6D0E004C0EA
:100100002197FE010E94600CC136D107C9F70E94F9
:10011000F4050C94580E0C940000AF92BF92CF924D
:10012000DF92EF92FF920F931F93CF93DF936C01B7
:100130007B018B01040F151FEB015E01AE18BF0898
:10014000C017D10759F06991D601ED91FC9101904A
:10015000F081E02DC6010995892B79F7C501DF9162
:10016000CF911F910F91FF90EF90DF90CF90BF90B4
:10017000AF900895FC01538D448D252F30E0842FDE
:1001800090E0821B930B541710F0CF9608950197BF
:100190000895FC01918D828D981761F0A28DAE0FAC
:1001A000BF2FB11D5D968C91928D9F5F9F73928F33
:1001B00090E008958FEF9FEF0895FC01918D828D5F
:1001C000981731F0828DE80FF11D858D90E008952C
:1001D0008FEF9FEF0895FC01918D228D892F90E084
:1001E000805C9F4F821B91098F73992708958FED33
:1001F00094E00E94EB0021E0892B09F420E0822F9B
:10020000089580E090E0892B29F00E94F700811189
:100210000C9400000895FC01A48DA80FB92FB11D06
:10022000A35ABF4F2C91848D90E001968F7399272C
:10023000848FA689B7892C93A089B1898C9183700A
:1002400080648C93938D848D981306C00288F38903
:10025000E02D80818F7D80830895EF92FF920F9330
:100260001F93CF93DF93EC0181E0888F9B8D8C8D62
:1002700098131AC0E889F989808185FF15C09FB756
:10028000F894EE89FF896083E889F9898081837019
:10029000806480839FBF81E090E0DF91CF911F91C8
:1002A0000F91FF90EF900895F62E0B8D10E00F5FE9
:1002B0001F4F0F731127E02E8C8D8E110CC00FB6BF
:1002C00007FCFACFE889F989808185FFF5CFCE0157
:1002D0000E940B01F1CFEB8DEC0FFD2FF11DE35AC6
:1002E000FF4FF0829FB7F8940B8FEA89FB898081DA
:1002F0008062CFCFCF93DF93EC01888D8823B9F054
:10030000AA89BB89E889F9898C9185FD03C0808120
:1003100086FD0DC00FB607FCF7CF8C9185FFF2CF9D
:10032000808185FFEDCFCE010E940B01E9CFDF91E7
:10033000CF910895833081F028F4813099F0823094
:10034000A9F008958730A9F08830C9F08430B1F45D
:10035000809180008F7D03C0809180008F77809393
:100360008000089584B58F7784BD089584B58F7D0E
:10037000FBCF8091B0008F778093B000089580917B
:10038000B0008F7DF9CFCF93DF93282F30E0F901B4
:10039000E255FF4F8491F901E656FF4FD491F901E0
:1003A000EA57FF4FC491CC23A1F081110E949A011A
:1003B000EC2FF0E0EE0FFF1FE458FF4FA591B49132
:1003C000EC91ED2381E090E009F480E0DF91CF91A2
:1003D000089580E090E0FACF1F93CF93DF93282F0A
:1003E00030E0F901E255FF4F8491F901E656FF4FE5
:1003F000D491F901EA57FF4FC491CC23A9F0162FED
:1004000081110E949A01EC2FF0E0EE0FFF1FEE58D1
:10041000FF4FA591B4918FB7F894EC91111108C0DA
:10042000D095DE23DC938FBFDF91CF911F9108958C
:10043000DE2BF8CFCF93DF9390E0FC01E656FF4F21
:1004400024918A579F4FFC0184918823D1F090E03A
:10045000880F991FFC01E859FF4FA591B491FC0149
:10046000EE58FF4FC591D49161110EC09FB7F8941B
:100470008C91E22FE0958E238C932881E223E883F0
:100480009FBFDF91CF9108958FB7F894EC91E22B45
:10049000EC938FBFF6CF3FB7F8948091DB04909137
:1004A000DC04A091DD04B091DE0426B5A89B05C054
:1004B0002F3F19F00196A11DB11D3FBFBA2FA92FE3
:1004C000982F8827BC01CD01620F711D811D911DE0
:1004D00042E0660F771F881F991F4A95D1F708954C
:1004E0008F929F92AF92BF92CF92DF92EF92FF9244
:1004F0004B015C010E944B026B017C010E944B028C
:100500006C197D098E099F09683E7340810591052C
:10051000A8F321E0821A9108A108B10888EEC80E5C
:1005200083E0D81EE11CF11C81149104A104B104E4
:1005300029F7FF90EF90DF90CF90BF90AF909F9002
:100540008F900895089590E080E00895CF93DF9311
:10055000EC0160E08E810E94EC0161E08E810E94DE
:10056000EC0160E08E810E94EC018BE891E0019744
:10057000F1F7DF91CF910895CF92DF92EF92FF9242
:100580000F931F93CF93DF936C017C0187E0E80EFC
:10059000F11CD0E0C0E0062F10E0B8010C2E02C024
:1005A000759567950A94E2F76170F70181917F0173
:1005B0000E94EC012196C430D10579F7C601DF9184
:1005C000CF911F910F91FF90EF90DF90CF900C94FF
:1005D000A602CF92DF92EF92FF920F931F93CF93D9
:1005E000DF93EC01F62E642F8C810E94EC018D814B
:1005F0008F3F19F060E00E94EC010F2D10E08F8515
:1006000084FF25C06E0187E0C80ED11CF12CE12CBF
:10061000B8010E2C02C0759567950A94E2F76170D7
:10062000F60181916F010E94EC01FFEFEF1AFF0AC2
:1006300088E0E816F10461F7CE01DF91CF911F91B8
:100640000F91FF90EF90DF90CF900C94A602B8012D
:1006500084E0759567958A95E1F7CE010E94BC020A
:100660006F2DCE01DF91CF911F910F91FF90EF90F1
:10067000DF90CF900C94BC0240E0682F84E995E0B5
:100680000C94E90281E00E943C038BE39FE1019717
:10069000F1F70895CF93DF93823029F49091A30569
:1006A00098609093A3058093A7051092A80580E415
:1006B0008093A90580E18093AA0580E58093AB052E
:1006C00061E0809198050E941A02809199058F3F00
:1006D00019F061E00E941A0261E080919A050E947F
:1006E0001A02C4E9D5E09E01245935408091A30542
:1006F00084FD0BC084E090E021962817390744F46C
:1007000061E08E810E941A02EECF88E090E0F4CF83
:100710008BE39DE00197F1F760E0809198050E94DE
:10072000EC0160E080919A050E94EC0180919905AE
:100730008F3F19F060E00E94EC018091A30584FDD9
:1007400034C063E084E995E00E94BC02CBE4D6E4C7
:10075000CE010197F1F763E084E995E00E94BC02C5
:100760002197F1F763E084E995E00E94BC0283E5FC
:1007700092E00197F1F762E084E995E00E94BC0203
:100780008091A30580620E943C0384E08093A405CD
:100790008CE00E943C030E94420382E08093A50506
:1007A00086E0DF91CF910C943C0380620E943C0371
:1007B0008BE496E40197F1F78091A30580620E9493
:1007C0003C0383E592E00197F1F78091A3058062F5
:1007D0000E943C03D5CF9091A705691710F06FEFE9
:1007E000690FE62FF0E0EC56FA4F9489890F806884
:1007F0000C943C0341E00E94E90281E090E00895FE
:10080000FC0101900020E9F73197AF01481B590B1B
:10081000BC0184E995E00C948D000F931F93CF9356
:10082000DF93EC0188819981009759F02A813B81FF
:100830002617370730F081E0DF91CF911F910F919C
:1008400008958B016F5F7F4F0E948B0D009759F0C9
:10085000998388831B830A832C813D81232B59F73D
:10086000FC011082E8CF80E0E7CFCF93DF93EC016B
:1008700088819981009711F00E94020D19821882D7
:100880001D821C821B821A82DF91CF9108950F93E3
:100890001F93CF93DF93EC010C811D810E5F1F4FDF
:1008A000B8010E940D04882391F0288139818C8140
:1008B0009D8164E271E0820F931F0E94510E1D839F
:1008C0000C83CE01DF91CF911F910F910895CE013E
:1008D0000E943504F6CFEF92FF920F931F93CF93B0
:1008E000DF93EC01FB01E080F180E114F10411F1F0
:1008F0000481158101151105A9F08C819D81080FD6
:10090000191FB801CE010E940D04882399F0288197
:1009100039818C819D81B701820F931F0E94510EF6
:100920001D830C83CE01DF91CF911F910F91FF901A
:10093000EF900895CE010E943504F4CFEF92FF921C
:100940000F931F93CF93DF93EC017B018A01BA01D0
:100950000E940D0481110BC0CE010E943504CE010E
:10096000DF91CF911F910F91FF90EF9008951D831C
:100970000C83B701888199810E94510EF0CFFC0150
:1009800011821082138212821582148250E040E09C
:1009900064ED74E00C949E04FB0101900020E9F7E3
:1009A0003197AF01461B570B0C949E04FB01DC01F1
:1009B00011961C921E9213961C921E9212971596D7
:1009C0001C921E9214978617970749F060817181D7
:1009D0006115710521F0448155810C949E040895A0
:1009E000FC0180819181009711F00C94020D089513
:1009F0001F920F920FB60F9211242F933F934F9394
:100A00005F936F937F938F939F93AF93BF93EF9376
:100A1000FF938FED94E00E940B01FF91EF91BF9146
:100A2000AF919F918F917F916F915F914F913F9186
:100A30002F910F900FBE0F901F9018951F920F923D
:100A40000FB60F9211242F938F939F93EF93FF93E1
:100A5000E091EF04F091F0048081E091F504F091D1
:100A6000F60482FD1BC090818091F8048F5F8F7324
:100A70002091F904821741F0E091F804F0E0E1528E
:100A8000FB4F958F8093F804FF91EF919F918F9189
:100A90002F910F900FBE0F901F9018958081F4CF6B
:100AA0001F920F920FB60F9211242F933F938F93A3
:100AB0009F93AF93BF938091D7049091D804A09156
:100AC000D904B091DA043091D60423E0230F2D37F6
:100AD00058F50196A11DB11D2093D6048093D7042B
:100AE0009093D804A093D904B093DA048091DB04E6
:100AF0009091DC04A091DD04B091DE040196A11D6B
:100B0000B11D8093DB049093DC04A093DD04B093CB
:100B1000DE04BF91AF919F918F913F912F910F90E4
:100B20000FBE0F901F90189526E8230F0296A11D67
:100B3000B11DD2CFEFEDF4E01382128288EE93E084
:100B4000A0E0B0E084839583A683B7838AE091E038
:100B50009183808385EC90E09587848784EC90E096
:100B60009787868780EC90E0918B808B81EC90E07A
:100B7000938B828B82EC90E0958B848B86EC90E05B
:100B8000978B868B118E128E138E148EE4E9F5E00E
:100B9000138212828CE191E0918380838DE08483C3
:100BA0008FEF85838CE086838BE087838AE0808764
:100BB00089E0818788E082871386148615861686E9
:100BC000178681E00E944A038EE895E00E94BF04E8
:100BD00088E895E00E94BF0482E895E00E94BF0487
:100BE0008CE795E00C94BF04CF93DF93CDB7DEB7CD
:100BF0002C970FB6F894DEBF0FBECDBF789484B5A6
:100C0000826084BD84B5816084BD85B5826085BD08
:100C100085B5816085BD80916E00816080936E0096
:100C20001092810080918100826080938100809188
:100C30008100816080938100809180008160809339
:100C400080008091B10084608093B1008091B000F9
:100C500081608093B00080917A00846080937A00F4
:100C600080917A00826080937A0080917A0081601E
:100C700080937A0080917A00806880937A00109245
:100C8000C100E091EF04F091F00482E08083E091F4
:100C9000EB04F091EC041082E091ED04F091EE048D
:100CA0008FEC80831092F704E091F304F091F40448
:100CB00086E08083E091F104F091F204808180610C
:100CC0008083E091F104F091F20480818860808358
:100CD000E091F104F091F204808180688083E091DA
:100CE000F104F091F20480818F7D808382E00E9484
:100CF0004A0360E080E00E94EB0387E291E00E94FB
:100D0000000461E080E00E94EB0389E391E00E942F
:100D1000000468EE73E080E090E00E9470020E94A0
:100D2000420360E08EE00E941A0260E08FE00E94C1
:100D30001A0260E080E10E941A0260E081E10E94F4
:100D40001A0260E082E10E941A0284E4782E90E0A8
:100D5000A92E90E0B92E8EE00E94C3014C018FE0D5
:100D60000E94C3016C0180E10E94C3017C0181E10A
:100D70000E94C3019C0170927C0090917A00906463
:100D800090937A0080917A0086FDFCCF00917800E4
:100D90001091790081E08816910409F033C260E077
:100DA00080E00E94EB0387E491E00E9400040115BB
:100DB000110509F07AC00E94420361E080E00E94C0
:100DC000EB0387E491E00E94000460E080E00E9471
:100DD000EB0388E591E00E94000460E085E00E945A
:100DE000EB0389EF93E00E9400046DE571E08EE86B
:100DF00095E00E94CC0461E671E082E895E00E94F3
:100E0000CC046BE771E08CE795E00E94CC046EE8BF
:100E100075E0CE0101960E94D604CE0101960E9493
:100E200047046CE775E00E946B040E94470462E887
:100E300075E00E946B04BC01CE0107960E94D604A7
:100E4000CE0101960E94F004BE01695F7F4FCE0182
:100E500001960E94D6044D815E8169817A818FED71
:100E600094E00E948D0042E050E062ED74E08FED6E
:100E700094E00E948D0068EB7BE080E090E00E94AF
:100E80007002CE0101960E94F004CE0107960E94E6
:100E9000F004A114B10409F45ECF0E94F700882386
:100EA00009F459CF0E94000056CFC801019783363C
:100EB000910518F50E94420361E080E00E94EB0377
:100EC00087E491E00E94000460E080E00E94EB0370
:100ED0008CE891E00E94000460E085E00E94EB0352
:100EE00081E991E00E94000468E971E08EE895E0F4
:100EF0000E94CC0465EA71E080CFC8018556910953
:100F00008336910518F50E94420361E080E00E945B
:100F1000EB0387E491E00E94000460E080E00E941F
:100F2000EB0381EC91E00E94000460E085E00E9408
:100F3000EB0386EC91E00E9400046DEC71E08EE81A
:100F400095E00E94CC046AED71E057CFC801895C3E
:100F500091098336910518F50E94420361E080E013
:100F60000E94EB0387E491E00E94000460E080E0CF
:100F70000E94EB0385EF91E00E94000460E085E0B1
:100F80000E94EB0389EF91E00E94000460E072E0B0
:100F90008EE895E00E94CC046EE072E02ECFC8018E
:100FA0008D52914083369105E8F40E94420361E03E
:100FB00080E00E94EB0387E491E00E94000460E07F
:100FC00080E00E94EB038BE292E00E94000460E06C
:100FD00085E00E94EB038FE292E00E94000466E34A
:100FE00072E0D6CFC801815991408336910518F53A
:100FF0000E94420361E080E00E94EB0387E491E0FD
:101000000E94000460E080E00E94EB0384E492E030
:101010000E94000460E085E00E94EB0388E492E017
:101020000E9400046DE472E08EE895E00E94CC041A
:1010300069E572E0E2CEC801855F91408336910593
:1010400018F50E94420361E080E00E94EB0387E410
:1010500091E00E94000460E080E00E94EB0383E7DF
:1010600092E00E94000460E085E00E94EB0387E7C5
:1010700092E00E9400046EE772E08EE895E00E9424
:10108000CC046CE872E0B9CEC80189559240833631
:10109000910518F50E94420361E080E00E94EB0395
:1010A00087E491E00E94000460E080E00E94EB038E
:1010B00089EA92E00E94000460E085E00E94EB0370
:1010C0008DEA92E00E94000464EB72E08EE895E005
:1010D0000E94CC0462EC72E090CEC8018D5B92401D
:1010E0008336910518F50E94420361E080E00E947A
:1010F000EB0387E491E00E94000460E080E00E943E
:10110000EB038FED92E00E94000460E085E00E9416
:10111000EB0383EE92E00E9400046AEE72E08EE838
:1011200095E00E94CC0468EF72E067CEC80181525E
:1011300093408336910518F50E94420361E080E0F8
:101140000E94EB0387E491E00E94000460E080E0ED
:101150000E94EB0385E193E00E94000460E085E0DB
:101160000E94EB0389E193E00E94000460E273E0D7
:101170008EE895E00E94CC046EE273E03ECE053826
:1011800013400CF444CE0E94420361E080E00E94D0
:10119000EB0387E491E00E94000460E080E00E949D
:1011A000EB038BE493E00E94000460E085E00E9482
:1011B000EB0380E593E00E94000465E573E08EE8B0
:1011C00095E00E94CC0462E673E082E895E00E941C
:1011D000CC046BE771E08CE795E00E94CC040E94A0
:1011E000420360E080E00E94EB038DE793E00E9401
:1011F000000461E080E00E94EB038BE893E00E9432
:10120000000405CE81E0C816D10409F0D7C2EA94E3
:10121000EF2809F0CCC160E080E00E94EB0381E997
:1012200093E00E9400040115110519F50E94420384
:1012300061E080E00E94EB0381E993E00E940004FA
:1012400060E080E00E94EB0388E591E00E940004EA
:1012500060E085E00E94EB0389EF93E00E940004C8
:101260006DE571E08EE895E00E94CC046FE973E0D3
:10127000CACDC801019783369105E8F40E94420364
:1012800061E080E00E94EB0381E993E00E940004AA
:1012900060E080E00E94EB038CE891E00E94000493
:1012A00060E085E00E94EB0381E991E00E94000488
:1012B00068E971E0D7CFC801855691098336910559
:1012C000E8F40E94420361E080E00E94EB0381E9C0
:1012D00093E00E94000460E080E00E94EB0381EC58
:1012E00091E00E94000460E085E00E94EB0386EC40
:1012F00091E00E9400046DEC71E0B4CFC801895CFC
:10130000910983369105E8F40E94420361E080E090
:101310000E94EB0381E993E00E94000460E080E01A
:101320000E94EB0385EF91E00E94000460E085E0FD
:101330000E94EB0386EB93E00E94000460E072E001
:1013400091CFC8018D52914083369105E8F40E94F7
:10135000420361E080E00E94EB0381E993E00E9498
:10136000000460E080E00E94EB038BE292E00E94C8
:10137000000460E085E00E94EB038FE292E00E94AF
:10138000000466E372E06ECFC80181599140833654
:101390009105E8F40E94420361E080E00E94EB03C3
:1013A00081E993E00E94000460E080E00E94EB038A
:1013B00084E492E00E94000460E085E00E94EB0378
:1013C00088E492E00E9400046DE472E04BCFC80113
:1013D000855F914083369105E8F40E94420361E005
:1013E00080E00E94EB0381E993E00E94000460E04A
:1013F00080E00E94EB0383E792E00E94000460E03B
:1014000085E00E94EB0387E792E00E9400046EE70C
:1014100072E028CFC8018955924083369105E8F4DF
:101420000E94420361E080E00E94EB0381E993E0C7
:101430000E94000460E080E00E94EB0389EA92E0F1
:101440000E94000460E085E00E94EB038DEA92E0D8
:101450000E94000464EB72E005CFC8018D5B9240EE
:1014600083369105E8F40E94420361E080E00E9427
:10147000EB0381E993E00E94000460E080E00E94B9
:10148000EB038FED92E00E94000460E085E00E9493
:10149000EB0383EE92E00E9400046AEE72E0E2CE7B
:1014A000C8018152934083369105E8F40E944203BB
:1014B00061E080E00E94EB0381E993E00E94000478
:1014C00060E080E00E94EB0385E193E00E9400046D
:1014D00060E085E00E94EB0389E193E00E94000454
:1014E00060E273E0BFCEC801855893408F34910508
:1014F000B8F50E94420361E080E00E94EB0381E9BD
:1015000093E00E94000460E080E00E94EB038BE423
:1015100093E00E94000460E085E00E94EB0380E518
:1015200093E00E94000465E573E08EE895E00E9478
:10153000CC046FE973E08CE795E00E94CC040E9434
:10154000420360E080E00E94EB038EEB93E00E9498
:10155000000461E080E00E94EB038DEC93E04FCE4D
:10156000053D13400CF453CC0E94420361E080E03F
:101570000E94EB0381E993E00E94000460E080E0B8
:101580000E94EB0382ED93E00E94000460E085E09E
:101590000E94EB0386ED93E00E9400046AED73E085
:1015A0008EE895E00E94CC046BE771E0C4CF213057
:1015B000310509F02CCC61E080E00E94EB0385EE60
:1015C00093E00E94000460E080E00E94EB0383EF60
:1015D00093E00E9400040115110519F50E944203D1
:1015E00061E080E00E94EB0385EE93E00E9400043E
:1015F00060E080E00E94EB0388E591E00E94000437
:1016000060E085E00E94EB0389EF93E00E94000414
:101610006DE571E08EE895E00E94CC046AE074E02C
:10162000F2CBC801019783369105E8F40E9442038A
:1016300061E080E00E94EB0385EE93E00E940004ED
:1016400060E080E00E94EB038CE891E00E940004DF
:1016500060E085E00E94EB0384E294E00E940004D5
:101660006CE274E0D7CFC8018556910983369105A5
:10167000E8F40E94420361E080E00E94EB0385EE03
:1016800093E00E94000460E080E00E94EB0381ECA4
:1016900091E00E94000460E085E00E94EB0389E392
:1016A00094E00E94000461E474E0B4CFC801895C56
:1016B000910983369105E8F40E94420361E080E0DD
:1016C0000E94EB0385EE93E00E94000460E080E05E
:1016D0000E94EB0385EF91E00E94000460E085E04A
:1016E0000E94EB038FE494E00E94000467E574E03D
:1016F00091CFC8018D52914083369105E8F40E9444
:10170000420361E080E00E94EB0385EE93E00E94DB
:10171000000460E080E00E94EB038BE292E00E9414
:10172000000460E085E00E94EB0383EE92E00E94FB
:10173000000465E674E06ECFC8018159914083369C
:101740009105E8F40E94420361E080E00E94EB030F
:1017500085EE93E00E94000460E080E00E94EB03CD
:1017600084E492E00E94000460E085E00E94EB03C4
:1017700080E593E00E94000463E774E04BCF053FEF
:1017800011400CF444CB0E94420360E080E00E94D0
:10179000EB038FE794E00E94000461E080E00E9488
:1017A000EB0389E994E00E9400046AED73E08EE89F
:1017B00095E00E94CC046EEA74E025CB892809F0FC
:1017C00026CBCD2809F023CBEF2809F020CB232B03
:1017D00009F01DCB0E94420360E080E00E94EB0311
:1017E00086EF93E00E94000461E080E00E94EB033A
:1017F0008EEB94E00E94000460E080E00E94EC0127
:1018000060E081E00E94EC0160E082E00E94EC0177
:1018100060E083E00E94EC0160E084E00E94EC0163
:1018200060E085E00E94EC0160E086E00E94EC014F
:10183000EECA8CE795E00E94F00482E895E00E94F1
:10184000F00488E895E00E94F0048EE895E00C949E
:10185000F0042F923F924F925F926F927F928F92FD
:101860009F92AF92BF92CF92DF92EF92FF920F932F
:101870001F93CF93DF93CDB7DEB7CA1BDB0B0FB639
:10188000F894DEBF0FBECDBF09942A8839884888F6
:101890005F846E847D848C849B84AA84B984C8848C
:1018A000DF80EE80FD800C811B81AA81B981CE0F83
:1018B000D11D0FB6F894DEBF0FBECDBFED01089568
:1018C000EE0FFF1F0590F491E02D09940F931F93E5
:1018D000CF93DF938230910510F482E090E0E091A5
:1018E000AE05F091AF0530E020E0B0E0A0E0309729
:1018F00099F42115310509F44AC0281B390B24300D
:101900003105D8F58A819B816115710589F1FB014B
:1019100093838283FE0111C0408151810281138132
:1019200048175907E0F04817590799F4109761F0E4
:1019300012960C93129713961C933296CF01DF9157
:10194000CF911F910F9108950093AE051093AF05AD
:10195000F4CF2115310551F04217530738F0A90192
:10196000DB019A01BD01DF01F801C1CFEF01F9CF21
:101970009093AF058093AE05CDCFFE01E20FF31F2C
:10198000819391932250310939832883D7CF2091B5
:10199000AC053091AD05232B41F42091020130912B
:1019A00003013093AD052093AC05209100013091E7
:1019B00001012115310541F42DB73EB740910401D5
:1019C00050910501241B350BE091AC05F091AD055C
:1019D000E217F307A0F42E1B3F0B2817390778F006
:1019E000AC014E5F5F4F2417350748F04E0F5F1F65
:1019F0005093AD054093AC05819391939FCFF0E058
:101A0000E0E09CCFCF93DF930097E9F0FC013297A1
:101A100013821282A091AE05B091AF05ED0130E0C6
:101A200020E01097A1F420813181820F931F209133
:101A3000AC053091AD052817390709F061C0F09366
:101A4000AD05E093AC05DF91CF910895EA01CE1783
:101A5000DF07E8F54A815B819E0141155105B1F729
:101A6000E901FB83EA8349915991C40FD51FEC1713
:101A7000FD0761F4808191810296840F951FE90131
:101A800099838883828193819B838A83F0E0E0E05D
:101A900012968D919C9113970097B9F52D913C91D9
:101AA0001197CD010296820F931F2091AC053091C2
:101AB000AD052817390739F6309751F51092AF0563
:101AC0001092AE05B093AD05A093AC05BCCFD38307
:101AD000C28340815181840F951FC817D90761F4D3
:101AE0004E5F5F4F88819981480F591F5183408312
:101AF0008A819B81938382832115310509F0B0CFC0
:101B0000F093AF05E093AE059ECFFD01DC01C0CFA1
:101B100013821282D7CFB0E0A0E0E1E9FDE00C949F
:101B20002B0C8C01009751F4CB010E94660C8C01A8
:101B3000C801CDB7DEB7E0E10C94470CFC01E60F1D
:101B4000F71F9C0122503109E217F30708F49DC0EA
:101B5000D901CD91DC911197C617D70798F0C53000
:101B6000D10530F3CE0104978617970708F3C61BFB
:101B7000D70B2297C193D1936D937C93CF010E9491
:101B8000020DD6CF5B01AC1ABD0A4C018C0E9D1E16
:101B9000A091AE05B091AF05512C412CF12CE12C58
:101BA000109731F58091AC059091AD058815990598
:101BB00009F05CC04616570608F058C08091000135
:101BC00090910101009741F48DB79EB740910401B7
:101BD00050910501841B950BE817F90708F055C0D3
:101BE000F093AD05E093AC05F90171836083A0CF5C
:101BF0008D919C91119712966C90129713967C90F0
:101C00001397A815B90559F56C0142E0C40ED11C13
:101C1000CA14DB0420F1AC014A195B09DA011296FF
:101C2000159780F06282738251834083D9016D934E
:101C30007C93E114F10471F0D7011396FC93EE93B9
:101C4000129776CF22968C0F9D1FF9019183808386
:101C5000F301EFCFF093AF05E093AE0569CF4816DF
:101C6000590608F42C017D01D3019ACFCB010E94C3
:101C7000660C7C01009749F0AE01B8010E94480E45
:101C8000C8010E94020D870153CF10E000E050CF41
:101C9000FB01DC0102C001900D9241505040D8F789
:101CA0000895FB01DC0101900D920020E1F70895F9
:101CB00010E0C2E6D0E004C0FE010E94600C219654
:101CC000C336D107C9F7F894FFCF0000B0058000F4
:101CD000000000002D018D00BA007A01EB00C90060
:101CE000DD0000000000FA038D00A302A2025F5F86
:101CF00000454E45524759204D4F4E49544F524989
:101D00004E47002620434F4E54524F4C4C494E47AD
:101D100000536F6C61725F636F6E6E656374696FA1
:101D20006E00553A302000555F30002C2030205294
:101D3000757065657320536176696E6720414D4FFC
:101D4000554E542000534F4C415220434F4E4E4568
:101D5000435445442000553A312000432D342E3859
:101D60002000553D315F436F73743D342E38002C95
:101D700020342E3820527570656573205361766962
:101D80006E6720414D4F554E542000553A32200089
:101D9000432D392E362000553D325F436F73743D1D
:101DA000392E36002C392E36205275706565732019
:101DB000536176696E6720414D4F554E5420005552
:101DC0003A3300432D31342E3400553D335F436F99
:101DD00073743D31342E34002C2031392E32205290
:101DE000757065657320536176696E6720414D4F4C
:101DF000554E542000553A3400432D31392E3200CF
:101E0000553D345F436F73743D31392E3200553A7E
:101E10003500432D323400553D355F436F73743DBB
:101E20003234002C32342052757065657320536152
:101E300076696E6720414D4F554E542000553A3615
:101E400000432D32382E3800553D365F436F737492
:101E50003D32382E38002C2032382E382052757002
:101E600065657320536176696E6720414D4F554E0D
:101E7000542000553A3700432D33332E3600553D5C
:101E8000375F436F73743D33332E36002C2033336A
:101E90002E362052757065657320536176696E67C2
:101EA00020414D4F554E542000553A3800432D33B4
:101EB000382E3400553D385F436F73743D33382EF0
:101EC00034002C2033382E34205275706565732011
:101ED000536176696E6720414D4F554E5420005531
:101EE0003A3900432D34332E3200553D395F436F6C
:101EF00073743D34332E32002C2034332E32205272
:101F0000757065657320536176696E6720414D4F2A
:101F1000554E542000553A313000432D3438005589
:101F20003D31305F436F73743D3438002C203438BA
:101F30002052757065657320536176696E67204124
:101F40004D4F554E5420005374696C6C20436F6E96
:101F50006E65637400536F6C617200474E5F636F10
:101F60006E6E656374696F6E0047524944204E4F30
:101F7000524D414C20434F4E4E4543544544200062
:101F8000432D31342E3420004C494D5420434F4DC5
:101F9000504C45544544004752494400553A30009E
:101FA000432D3000553D305F436F73743D30004723
:101FB000505F636F6E6E656374696F6E00202020E2
:101FC0002020202020202020202020202020202011
:101FD0002020200047524944205045414B2054497D
:101FE0004D4520434F4E4E45435445442000432D1C
:101FF00020392E362000553D315F436F73743D39D3
:102000002E3600432D31392E322000553D325F43AC
:102010006F73743D31392E3200432D32382E382003
:1020200000553D335F436F73743D32382E38005591
:102030003D345F436F73743D33382E3400553D3566
:102040005F436F73743D3438004752494420504514
:10205000414B204C494D542020202020202020207E
:10206000202000434F4D504C455445442020202013
:102070002020202020202000534F4C415220434F4D
:102080004E4E4543544544004E4F5F434F4E4E45E0
:102090004354494F4E202020202020000D0A0000EC
:107E0000112484B714BE81FFF0D085E080938100F7
:107E100082E08093C00088E18093C10086E0809377
:107E2000C20080E18093C4008EE0C9D0259A86E02C
:107E300020E33CEF91E0309385002093840096BBD3
:107E4000B09BFECF1D9AA8958150A9F7CC24DD24C4
:107E500088248394B5E0AB2EA1E19A2EF3E0BF2EE7
:107E6000A2D0813461F49FD0082FAFD0023811F036
:107E7000013811F484E001C083E08DD089C08234E0
:107E800011F484E103C0853419F485E0A6D080C0E4
:107E9000853579F488D0E82EFF2485D0082F10E0AE
:107EA000102F00270E291F29000F111F8ED06801E7
:107EB0006FC0863521F484E090D080E0DECF843638
:107EC00009F040C070D06FD0082F6DD080E0C81688
:107ED00080E7D80618F4F601B7BEE895C0E0D1E017
:107EE00062D089930C17E1F7F0E0CF16F0E7DF06D8
:107EF00018F0F601B7BEE89568D007B600FCFDCFD4
:107F0000A601A0E0B1E02C9130E011968C91119780
:107F100090E0982F8827822B932B1296FA010C0160
:107F200087BEE89511244E5F5F4FF1E0A038BF0790
:107F300051F7F601A7BEE89507B600FCFDCF97BE46
:107F4000E89526C08437B1F42ED02DD0F82E2BD052
:107F50003CD0F601EF2C8F010F5F1F4F84911BD097
:107F6000EA94F801C1F70894C11CD11CFA94CF0C13
:107F7000D11C0EC0853739F428D08EE10CD085E9AC
:107F80000AD08FE07ACF813511F488E018D01DD067
:107F900080E101D065CF982F8091C00085FFFCCF94
:107FA0009093C60008958091C00087FFFCCF809118
:107FB000C00084FD01C0A8958091C6000895E0E648
:107FC000F0E098E1908380830895EDDF803219F02E
:107FD00088E0F5DFFFCF84E1DECF1F93182FE3DFCA
:107FE0001150E9F7F2DF1F91089580E0E8DFEE27F6
:047FF000FF270994CA
:027FFE00040479
:00000001FF
