:100000000C9463000C948B000C948B000C948B006C
:100010000C948B000C948B000C948B000C948B0034
:100020000C948B000C948B000C948B000C948B0024
:100030000C948B000C948B000C948B000C948B0014
:100040000C9450050C948B000C941E050C94F80431
:100050000C948B000C948B000C948B000C948B00F4
:100060000C948B000C948B000000000024002700EF
:100070002A0000000000250028002B0000000000DE
:1000800023002600290004040404040404040202DA
:100090000202020203030303030301020408102007
:1000A0004080010204081020010204081020000012
:1000B0000008000201000003040700000000000027
:1000C00000009A054E0F11241FBECFEFD8E0DEBF0F
:1000D000CDBF25E0A6E0B5E001C01D92A03EB2076D
:1000E000E1F715E0A0E0B1E0E4E3F3E202C005903F
:1000F0000D92A630B107D9F710E0C2E6D0E004C0F7
:100100002197FE010E94950FC136D107C9F70E94C1
:10011000F4050C948D110C940000AF92BF92CF9215
:10012000DF92EF92FF920F931F93CF93DF936C01B7
:100130007B018B01040F151FEB015E01AE18BF0898
:10014000C017D10759F06991D601ED91FC9101904A
:10015000F081E02DC6010995892B79F7C501DF9162
:10016000CF911F910F91FF90EF90DF90CF90BF90B4
:10017000AF900895FC01538D448D252F30E0842FDE
:1001800090E0821B930B541710F0CF9608950197BF
:100190000895FC01918D828D981761F0A28DAE0FAC
:1001A000BF2FB11D5D968C91928D9F5F9F73928F33
:1001B00090E008958FEF9FEF0895FC01918D828D5F
:1001C000981731F0828DE80FF11D858D90E008952C
:1001D0008FEF9FEF0895FC01918D228D892F90E084
:1001E000805C9F4F821B91098F73992708958FE040
:1001F00095E00E94EB0021E0892B09F420E0822F9A
:10020000089580E090E0892B29F00E94F700811189
:100210000C9400000895FC01A48DA80FB92FB11D06
:10022000A35ABF4F2C91848D90E001968F7399272C
:10023000848FA689B7892C93A089B1898C9183700A
:1002400080648C93938D848D981306C00288F38903
:10025000E02D80818F7D80830895EF92FF920F9330
:100260001F93CF93DF93EC0181E0888F9B8D8C8D62
:1002700098131AC0E889F989808185FF15C09FB756
:10028000F894EE89FF896083E889F9898081837019
:10029000806480839FBF81E090E0DF91CF911F91C8
:1002A0000F91FF90EF900895F62E0B8D10E00F5FE9
:1002B0001F4F0F731127E02E8C8D8E110CC00FB6BF
:1002C00007FCFACFE889F989808185FFF5CFCE0157
:1002D0000E940B01F1CFEB8DEC0FFD2FF11DE35AC6
:1002E000FF4FF0829FB7F8940B8FEA89FB898081DA
:1002F0008062CFCFCF93DF93EC01888D8823B9F054
:10030000AA89BB89E889F9898C9185FD03C0808120
:1003100086FD0DC00FB607FCF7CF8C9185FFF2CF9D
:10032000808185FFEDCFCE010E940B01E9CFDF91E7
:10033000CF910895833081F028F4813099F0823094
:10034000A9F008958730A9F08830C9F08430B1F45D
:10035000809180008F7D03C0809180008F77809393
:100360008000089584B58F7784BD089584B58F7D0E
:10037000FBCF8091B0008F778093B000089580917B
:10038000B0008F7DF9CFCF93DF93282F30E0F901B4
:10039000E255FF4F8491F901E656FF4FD491F901E0
:1003A000EA57FF4FC491CC23A1F081110E949A011A
:1003B000EC2FF0E0EE0FFF1FE458FF4FA591B49132
:1003C000EC91ED2381E090E009F480E0DF91CF91A2
:1003D000089580E090E0FACF1F93CF93DF93282F0A
:1003E00030E0F901E255FF4F8491F901E656FF4FE5
:1003F000D491F901EA57FF4FC491CC23A9F0162FED
:1004000081110E949A01EC2FF0E0EE0FFF1FEE58D1
:10041000FF4FA591B4918FB7F894EC91111108C0DA
:10042000D095DE23DC938FBFDF91CF911F9108958C
:10043000DE2BF8CFCF93DF9390E0FC01E656FF4F21
:1004400024918A579F4FFC0184918823D1F090E03A
:10045000880F991FFC01E859FF4FA591B491FC0149
:10046000EE58FF4FC591D49161110EC09FB7F8941B
:100470008C91E22FE0958E238C932881E223E883F0
:100480009FBFDF91CF9108958FB7F894EC91E22B45
:10049000EC938FBFF6CF3FB7F89480910B05909106
:1004A0000C05A0910D05B0910E0526B5A89B05C0C1
:1004B0002F3F19F00196A11DB11D3FBFBA2FA92FE3
:1004C000982F8827BC01CD01620F711D811D911DE0
:1004D00042E0660F771F881F991F4A95D1F708954C
:1004E0008F929F92AF92BF92CF92DF92EF92FF9244
:1004F0004B015C010E944B026B017C010E944B028C
:100500006C197D098E099F09683E7340810591052C
:10051000A8F321E0821A9108A108B10888EEC80E5C
:1005200083E0D81EE11CF11C81149104A104B104E4
:1005300029F7FF90EF90DF90CF90BF90AF909F9002
:100540008F900895089590E080E00895CF93DF9311
:10055000EC0160E08E810E94EC0161E08E810E94DE
:10056000EC0160E08E810E94EC018BE891E0019744
:10057000F1F7DF91CF910895CF92DF92EF92FF9242
:100580000F931F93CF93DF936C017C0187E0E80EFC
:10059000F11CD0E0C0E0062F10E0B8010C2E02C024
:1005A000759567950A94E2F76170F70181917F0173
:1005B0000E94EC012196C430D10579F7C601DF9184
:1005C000CF911F910F91FF90EF90DF90CF900C94FF
:1005D000A602CF92DF92EF92FF920F931F93CF93D9
:1005E000DF93EC01F62E642F8C810E94EC018D814B
:1005F0008F3F19F060E00E94EC010F2D10E08F8515
:1006000084FF25C06E0187E0C80ED11CF12CE12CBF
:10061000B8010E2C02C0759567950A94E2F76170D7
:10062000F60181916F010E94EC01FFEFEF1AFF0AC2
:1006300088E0E816F10461F7CE01DF91CF911F91B8
:100640000F91FF90EF90DF90CF900C94A602B8012D
:1006500084E0759567958A95E1F7CE010E94BC020A
:100660006F2DCE01DF91CF911F910F91FF90EF90F1
:10067000DF90CF900C94BC0240E0682F84EC95E0B2
:100680000C94E90281E00E943C038BE39FE1019717
:10069000F1F70895CF93DF93823029F49091D30539
:1006A00098609093D3058093D7051092D80580E485
:1006B0008093D90580E18093DA0580E58093DB059E
:1006C00061E08091C8050E941A028091C9058F3FA0
:1006D00019F061E00E941A0261E08091CA050E944F
:1006E0001A02C4ECD5E09E01245C35408091D3050C
:1006F00084FD0BC084E090E021962817390744F46C
:1007000061E08E810E941A02EECF88E090E0F4CF83
:100710008BE39DE00197F1F760E08091C8050E94AE
:10072000EC0160E08091CA050E94EC018091C9054E
:100730008F3F19F060E00E94EC018091D30584FDA9
:1007400034C063E084EC95E00E94BC02CBE4D6E4C4
:10075000CE010197F1F763E084EC95E00E94BC02C2
:100760002197F1F763E084EC95E00E94BC0283E5F9
:1007700092E00197F1F762E084EC95E00E94BC0200
:100780008091D30580620E943C0384E08093D4056D
:100790008CE00E943C030E94420382E08093D505D6
:1007A00086E0DF91CF910C943C0380620E943C0371
:1007B0008BE496E40197F1F78091D30580620E9463
:1007C0003C0383E592E00197F1F78091D3058062C5
:1007D0000E943C03D5CF9091D705691710F06FEFB9
:1007E000690FE62FF0E0EC53FA4F9489890F806887
:1007F0000C943C0341E00E94E90281E090E00895FE
:10080000FC0101900020E9F73197AF01481B590B1B
:10081000BC0184EC95E00C948D000F931F93CF9353
:10082000DF93EC0188819981009759F02A813B81FF
:100830002617370730F081E0DF91CF911F910F919C
:1008400008958B016F5F7F4F0E94C010009759F091
:10085000998388831B830A832C813D81232B59F73D
:10086000FC011082E8CF80E0E7CFCF93DF93EC016B
:1008700088819981009711F00E943710198218829F
:100880001D821C821B821A82DF91CF9108950F93E3
:100890001F93CF93DF93EC010C811D810E5F1F4FDF
:1008A000B8010E940D04882391F0288139818C8140
:1008B0009D8164E271E0820F931F0E9486111D8367
:1008C0000C83CE01DF91CF911F910F910895CE013E
:1008D0000E943504F6CFEF92FF920F931F93CF93B0
:1008E000DF93EC01FB01E080F180E114F10411F1F0
:1008F0000481158101151105A9F08C819D81080FD6
:10090000191FB801CE010E940D04882399F0288197
:1009100039818C819D81B701820F931F0E948611BE
:100920001D830C83CE01DF91CF911F910F91FF901A
:10093000EF900895CE010E943504F4CFEF92FF921C
:100940000F931F93CF93DF93EC017B018A01BA01D0
:100950000E940D0481110BC0CE010E943504CE010E
:10096000DF91CF911F910F91FF90EF9008951D831C
:100970000C83B701888199810E948611F0CFFC0118
:1009800011821082138212821582148250E040E09C
:1009900065E075E00C949E04FB0101900020E9F7EE
:1009A0003197AF01461B570B0C949E04FB01DC01F1
:1009B00011961C921E9213961C921E9212971596D7
:1009C0001C921E9214978617970749F060817181D7
:1009D0006115710521F0448155810C949E040895A0
:1009E000FC0180819181009711F00C9437100895DB
:1009F0001F920F920FB60F9211242F933F934F9394
:100A00005F936F937F938F939F93AF93BF93EF9376
:100A1000FF938FE095E00E940B01FF91EF91BF9152
:100A2000AF919F918F917F916F915F914F913F9186
:100A30002F910F900FBE0F901F9018951F920F923D
:100A40000FB60F9211242F938F939F93EF93FF93E1
:100A5000E0911F05F09120058081E0912505F0913E
:100A6000260582FD1BC09081809128058F5F8F73C2
:100A700020912905821741F0E0912805F0E0E15F1F
:100A8000FA4F958F80932805FF91EF919F918F9159
:100A90002F910F900FBE0F901F9018958081F4CF6B
:100AA0001F920F920FB60F9211242F933F938F93A3
:100AB0009F93AF93BF938091070590910805A091F4
:100AC0000905B0910A053091060523E0230F2D3763
:100AD00058F50196A11DB11D2093060580930705C9
:100AE00090930805A0930905B0930A0580910B0522
:100AF00090910C05A0910D05B0910E050196A11DD8
:100B0000B11D80930B0590930C05A0930D05B09338
:100B10000E05BF91AF919F918F913F912F910F90B3
:100B20000FBE0F901F90189526E8230F0296A11D67
:100B3000B11DD2CFEFE0F5E01382128288EE93E090
:100B4000A0E0B0E084839583A683B7838AE091E038
:100B50009183808385EC90E09587848784EC90E096
:100B60009787868780EC90E0918B808B81EC90E07A
:100B7000938B828B82EC90E0958B848B86EC90E05B
:100B8000978B868B118E128E138E148EE4ECF5E00B
:100B9000138212828CE191E0918380838DE08483C3
:100BA0008FEF85838CE086838BE087838AE0808764
:100BB00089E0818788E082871386148615861686E9
:100BC000178681E00E944A038EEB95E00E94BF04E5
:100BD00088EB95E00E94BF0482EB95E00E94BF0481
:100BE0008CEA95E00C94BF04CF93DF93CDB7DEB7CA
:100BF0002C970FB6F894DEBF0FBECDBF789484B5A6
:100C0000826084BD84B5816084BD85B5826085BD08
:100C100085B5816085BD80916E00816080936E0096
:100C20001092810080918100826080938100809188
:100C30008100816080938100809180008160809339
:100C400080008091B10084608093B1008091B000F9
:100C500081608093B00080917A00846080937A00F4
:100C600080917A00826080937A0080917A0081601E
:100C700080937A0080917A00806880937A00109245
:100C8000C100E0911F05F091200582E08083E09192
:100C90001B05F0911C051082E0911D05F0911E05C9
:100CA0008FEC808310922705E0912305F0912405B5
:100CB00086E08083E0912105F091220580818061AA
:100CC0008083E0912105F0912205808188608083F6
:100CD000E0912105F0912205808180688083E09178
:100CE0002105F091220580818F7D808382E00E9422
:100CF0004A0360E080E00E94EB0387E291E00E94FB
:100D0000000461E080E00E94EB0389E391E00E942F
:100D1000000460ED77E080E090E00E9470020E94A5
:100D2000420360E08EE00E941A0260E08FE00E94C1
:100D30001A0260E080E10E941A0260E081E10E94F4
:100D40001A0260E082E10E941A0261E080E00E94E3
:100D50001A0261E082E00E941A0261E083E00E94D0
:100D60001A0261E084E00E941A0261E085E00E94BC
:100D70001A0261E086E00E941A0261E087E00E94A8
:100D80001A0284E4982E90E0E92E90E0F92E8EE08D
:100D90000E94C3015C018FE00E94C3016C0180E1ED
:100DA0000E94C3018C0181E10E94C301AC019092B9
:100DB0007C0090917A00906490937A0080917A0000
:100DC00086FDFCCF209178003091790081E0A81653
:100DD000B10409F04BC32115310509F07AC00E9416
:100DE000420361E080E00E94EB0387E491E00E940F
:100DF000000460E080E00E94EB0382E591E00E9445
:100E0000000460E085E00E94EB038EED94E00E9418
:100E1000000467E571E08EEB95E00E94CC046BE581
:100E200071E082EB95E00E94CC0468EA73E08CEA02
:100E300095E00E94CC046EEB75E0CE0101960E9415
:100E4000D604CE0101960E9447046CEA75E00E9428
:100E50006B040E94470462EB75E00E946B04BC01C6
:100E6000CE0107960E94D604CE0101960E94F0049E
:100E7000BE01695F7F4FCE0101960E94D6044D816D
:100E80005E8169817A818FE095E00E948D0042E069
:100E900050E063E075E08FE095E00E948D0068EB24
:100EA0007BE080E090E00E947002CE0101960E94FB
:100EB000F004CE0107960E94F004E114F10409F455
:100EC00066CF0E94F700882309F461CF0E940000DA
:100ED0005ECFC90101978336910508F03FC00E949B
:100EE000420361E080E00E94EB0387E491E00E940E
:100EF000000460E080E00E94EC0161E082E00E947A
:100F0000EC0160E083E00E94EC0160E084E00E947C
:100F1000EC0160E085E00E94EC0161E086E00E9467
:100F2000EC0160E087E00E94EC0160E080E00E945C
:100F3000EB0385E791E00E94000460E085E00E94F9
:100F4000EB038AE791E00E94000461E871E08EEB18
:100F500095E00E94CC046EE871E063CFC90185562C
:100F600091098336910508F03FC00E94420361E079
:100F700080E00E94EB0387E491E00E94000460E0BF
:100F800080E00E94EC0161E082E00E94EC0160E000
:100F900083E00E94EC0160E084E00E94EC0160E0EC
:100FA00085E00E94EC0161E086E00E94EC0160E0D7
:100FB00087E00E94EC0160E080E00E94EB038AEA97
:100FC00091E00E94000460E085E00E94EB038FEA5C
:100FD00091E00E94000466EB71E08EEB95E00E94C8
:100FE000CC0463EC71E01DCFC901895C91098336A3
:100FF000910508F03FC00E94420361E080E00E943A
:10100000EB0387E491E00E94000460E080E00E942E
:10101000EC0161E082E00E94EC0160E083E00E946C
:10102000EC0160E084E00E94EC0160E085E00E9459
:10103000EC0161E086E00E94EC0160E087E00E9444
:10104000EC0160E080E00E94EB038EED91E00E94F5
:10105000000460E085E00E94EB0382EE91E00E94D4
:10106000000469EE71E08EEB95E00E94CC0467EF1E
:1010700071E0D7CEC9018D52914083369105C8F5F4
:101080000E94420361E080E00E94EB0387E491E06C
:101090000E94000460E080E00E94EC0161E082E0D8
:1010A0000E94EC0160E083E00E94EC0160E084E0DB
:1010B0000E94EC0160E085E00E94EC0161E086E0C6
:1010C0000E94EC0160E087E00E94EC0160E080E0BB
:1010D0000E94EB0384E192E00E94000460E085E05E
:1010E0000E94EB0388E192E00E9400046FE172E04D
:1010F000BACFC901815991408336910508F03FC0AC
:101100000E94420361E080E00E94EB0387E491E0EB
:101110000E94000460E080E00E94EC0161E082E057
:101120000E94EC0160E083E00E94EC0160E084E05A
:101130000E94EC0160E085E00E94EC0161E086E045
:101140000E94EC0160E087E00E94EC0160E080E03A
:101150000E94EB038DE292E00E94000460E085E0D3
:101160000E94EB0381E392E00E94000466E372E0D8
:101170008EEB95E00E94CC0462E472E052CEC9018D
:10118000855F91408336910508F03FC00E9442037D
:1011900061E080E00E94EB0387E491E00E9400049C
:1011A00060E080E00E94EC0161E082E00E94EC01DE
:1011B00060E083E00E94EC0160E084E00E94EC01CA
:1011C00060E085E00E94EC0161E086E00E94EC01B5
:1011D00060E087E00E94EC0160E080E00E94EB03A9
:1011E0008CE592E00E94000460E085E00E94EB0341
:1011F00080E692E00E94000467E672E08EEB95E0E4
:101200000E94CC0465E772E00CCEC901895592407A
:101210008336910508F03FC00E94420361E080E000
:101220000E94EB0387E491E00E94000460E080E00C
:101230000E94EC0161E082E00E94EC0160E083E04A
:101240000E94EC0160E084E00E94EC0160E085E037
:101250000E94EC0161E086E00E94EC0160E087E022
:101260000E94EC0160E080E00E94EB0382E992E0E2
:101270000E94000460E085E00E94EB0386E992E0B2
:101280000E9400046DE972E08EEB95E00E94CC04B0
:101290006BEA72E0C6CDC9018D5B92408336910541
:1012A00008F03FC00E94420361E080E00E94EB032F
:1012B00087E491E00E94000460E080E00E94EC017D
:1012C00061E082E00E94EC0160E083E00E94EC01BA
:1012D00060E084E00E94EC0160E085E00E94EC01A7
:1012E00061E086E00E94EC0160E087E00E94EC0192
:1012F00060E080E00E94EB0388EC92E00E94000432
:1013000060E085E00E94EB038CEC92E00E94000418
:1013100063ED72E08EEB95E00E94CC0461EE72E02A
:1013200080CDC901815293408336910508F03FC0BA
:101330000E94420361E080E00E94EB0387E491E0B9
:101340000E94000460E080E00E94EC0161E082E025
:101350000E94EC0160E083E00E94EC0160E084E028
:101360000E94EC0160E085E00E94EC0161E086E013
:101370000E94EC0160E087E00E94EC0160E080E008
:101380000E94EB038EEF92E00E94000460E085E093
:101390000E94EB0382E093E00E94000469E073E0A6
:1013A0008EEB95E00E94CC0467E173E03ACD2538DE
:1013B00033400CF440CD0E94420361E080E00E9483
:1013C000EB0387E491E00E94000460E080E00E946B
:1013D000EC0161E082E00E94EC0160E083E00E94A9
:1013E000EC0160E084E00E94EC0160E085E00E9496
:1013F000EC0161E086E00E94EC0160E087E00E9481
:10140000EC0160E080E00E94EB0384E393E00E9443
:10141000000460E085E00E94EB0389E393E00E9412
:1014200000046EE373E08EEB95E00E94CC046BE465
:1014300073E082EB95E00E94CC0468EA73E08CEAEA
:1014400095E00E94CC040E94420360E080E00E948C
:10145000EB0386E693E00E94000461E080E00E94D6
:10146000EB0384E793E00E940004E5CC81E0C8161A
:10147000D10409F0D7C40130110509F019C3253D85
:1014800083E03807ECF161E080E00E94EB038AE73B
:1014900093E00E94000460E080E00E94EC0161E0C3
:1014A00082E00E94EC0160E083E00E94EC0160E0D9
:1014B00084E00E94EC0160E085E00E94EC0161E0C4
:1014C00086E00E94EC0160E087E00E94EC0160E0B1
:1014D00080E00E94EB0384E393E00E94000460E05C
:1014E00085E00E94EB0389E393E00E9400046EE331
:1014F00073E08EEB95E00E94CC0467E973E097CC33
:101500002115310509F045C060E080E00E94EB0341
:1015100089EB93E00E94000461E080E00E94EB030D
:1015200083E494E00E94000460E080E00E94EC010B
:1015300060E082E00E94EC0160E083E00E94EC0148
:1015400060E084E00E94EC0160E085E00E94EC0134
:1015500060E086E00E94EC0160E087E00E94EC0120
:1015600060E080E00E94EB0382E591E00E940004CD
:1015700060E085E00E94EB038EED94E00E940004A1
:1015800067E571E08EEB95E00E94CC0465EC73E0BA
:101590004ECCC901019783369105C8F50E944203DC
:1015A00061E080E00E94EB038CED93E00E94000478
:1015B00061E080E00E94EC0160E082E00E94EC01CA
:1015C00061E083E00E94EC0161E084E00E94EC01B4
:1015D00060E085E00E94EC0161E086E00E94EC01A1
:1015E00061E087E00E94EC0160E080E00E94EB0394
:1015F00085E791E00E94000460E085E00E94EB0333
:101600008AE791E00E94000461E871E0BBCFC90164
:101610008556910983369105C8F50E94420361E021
:1016200080E00E94EB038CED93E00E94000461E0F7
:1016300080E00E94EC0160E082E00E94EC0161E049
:1016400083E00E94EC0161E084E00E94EC0160E034
:1016500085E00E94EC0161E086E00E94EC0161E01F
:1016600087E00E94EC0160E080E00E94EB038AEAE0
:1016700091E00E94000460E085E00E94EB038FEAA5
:1016800091E00E94000466EB71E07CCFC901895CA7
:10169000910983369105C8F50E94420361E080E01C
:1016A0000E94EB038CED93E00E94000461E080E077
:1016B0000E94EC0160E082E00E94EC0161E083E0C6
:1016C0000E94EC0161E084E00E94EC0160E085E0B2
:1016D0000E94EC0161E086E00E94EC0161E087E09D
:1016E0000E94EC0160E080E00E94EB038EED91E04F
:1016F0000E94000460E085E00E94EB038AEE93E024
:101700000E94000469EE71E03DCFC9018D52914005
:1017100083369105C8F50E94420361E080E00E9493
:10172000EB038CED93E00E94000461E080E00E94F6
:10173000EC0160E082E00E94EC0161E083E00E9445
:10174000EC0161E084E00E94EC0160E085E00E9431
:10175000EC0161E086E00E94EC0161E087E00E941C
:10176000EC0160E080E00E94EB0384E192E00E94E3
:10177000000460E085E00E94EB0388E192E00E94B3
:1017800000046FE172E0FECEC901815991408336B9
:101790009105C8F50E94420361E080E00E94EB03DE
:1017A0008CED93E00E94000461E080E00E94EC0177
:1017B00060E082E00E94EC0161E083E00E94EC01C5
:1017C00061E084E00E94EC0160E085E00E94EC01B1
:1017D00061E086E00E94EC0161E087E00E94EC019C
:1017E00060E080E00E94EB038DE292E00E94000442
:1017F00060E085E00E94EB0381E392E00E94000438
:1018000066E372E0BFCEC901855F914083369105E2
:10181000C8F50E94420361E080E00E94EB038CED7A
:1018200093E00E94000461E080E00E94EC0160E02F
:1018300082E00E94EC0161E083E00E94EC0161E043
:1018400084E00E94EC0160E085E00E94EC0161E030
:1018500086E00E94EC0161E087E00E94EC0160E01C
:1018600080E00E94EB038CE592E00E94000460E0BF
:1018700085E00E94EB0380E692E00E94000467E6A8
:1018800072E080CEC9018955924083369105C8F532
:101890000E94420361E080E00E94EB038CED93E044
:1018A0000E94000461E080E00E94EC0160E082E0C0
:1018B0000E94EC0161E083E00E94EC0161E084E0C1
:1018C0000E94EC0160E085E00E94EC0161E086E0AE
:1018D0000E94EC0161E087E00E94EC0160E080E0A2
:1018E0000E94EB0382E992E00E94000460E085E040
:1018F0000E94EB0386E992E00E9400046DE972E029
:1019000041CEC9018D5B924083369105C8F50E9496
:10191000420361E080E00E94EB038CED93E00E94C3
:10192000000461E080E00E94EC0160E082E00E943F
:10193000EC0161E083E00E94EC0161E084E00E9440
:10194000EC0160E085E00E94EC0161E086E00E942D
:10195000EC0161E087E00E94EC0160E080E00E9421
:10196000EB0388EC92E00E94000460E085E00E94B6
:10197000EB038CEC92E00E94000463ED72E002CE77
:10198000C9018152934083369105C8F50E944203F4
:1019900061E080E00E94EB038CED93E00E94000484
:1019A00061E080E00E94EC0160E082E00E94EC01D6
:1019B00061E083E00E94EC0161E084E00E94EC01C0
:1019C00060E085E00E94EC0161E086E00E94EC01AD
:1019D00061E087E00E94EC0160E080E00E94EB03A0
:1019E0008EEF92E00E94000460E085E00E94EB032D
:1019F00082E093E00E94000469E073E0C3CD2558C3
:101A000033402F34310508F016CA0E94420361E0CA
:101A100080E00E94EB038CED93E00E94000461E003
:101A200080E00E94EC0160E082E00E94EC0161E055
:101A300083E00E94EC0161E084E00E94EC0160E040
:101A400085E00E94EC0161E086E00E94EC0161E02B
:101A500087E00E94EC0160E080E00E94EB0384E3F9
:101A600093E00E94000460E085E00E94EB0389E3BC
:101A700093E00E9400046EE373E08EEB95E00E9419
:101A8000CC0465EC73E08CEA95E00E94CC040E94E3
:101A9000420360E080E00E94EB0382EF93E00E944B
:101AA000000461E080E00E94EB0381E094E0DBCC85
:101AB0004130510509F0BFC9253F81E03807ACF13D
:101AC00060E080E00E94EB0388EA93E00E9400045B
:101AD00061E080E00E94EB0386E094E00E94000455
:101AE00060E080E00E94EC0161E082E00E94EC0195
:101AF00060E083E00E94EC0160E084E00E94EC0181
:101B000060E085E00E94EC0161E086E00E94EC016B
:101B100060E087E00E94EC0168E174E08EEB95E004
:101B20000E94CC046DE374E082C92115310509F0EF
:101B30003FC00E94420361E080E00E94EB038DE41D
:101B400094E00E94000460E080E00E94EC0160E00C
:101B500082E00E94EC0160E083E00E94EC0160E022
:101B600084E00E94EC0160E085E00E94EC0160E00E
:101B700086E00E94EC0160E087E00E94EC0160E0FA
:101B800080E00E94EB0382E591E00E94000460E0A7
:101B900085E00E94EB038EED94E00E94000467E56F
:101BA00071E08EEB95E00E94CC0468E574E03FC9DB
:101BB000C901019783369105C8F50E94420361E08F
:101BC00080E00E94EB0382E794E00E94000461E061
:101BD00080E00E94EC0160E082E00E94EC0161E0A4
:101BE00083E00E94EC0160E084E00E94EC0161E08F
:101BF00085E00E94EC0161E086E00E94EC0161E07A
:101C000087E00E94EC0160E080E00E94EB0385E742
:101C100091E00E94000460E085E00E94EB0380E810
:101C200094E00E94000468E874E0BBCFC9018556C7
:101C3000910983369105C8F50E94420361E080E076
:101C40000E94EB0382E794E00E94000461E080E0E0
:101C50000E94EC0160E082E00E94EC0161E083E020
:101C60000E94EC0160E084E00E94EC0161E085E00C
:101C70000E94EC0161E086E00E94EC0161E087E0F7
:101C80000E94EC0160E080E00E94EB038AEA91E0B0
:101C90000E94000460E085E00E94EB0385E994E087
:101CA0000E9400046DE974E07CCFC901895C910950
:101CB00083369105C8F50E94420361E080E00E94EE
:101CC000EB0382E794E00E94000461E080E00E9460
:101CD000EC0160E082E00E94EC0161E083E00E94A0
:101CE000EC0160E084E00E94EC0161E085E00E948C
:101CF000EC0161E086E00E94EC0161E087E00E9477
:101D0000EC0160E080E00E94EB038EED91E00E9428
:101D1000000460E085E00E94EB038BEA94E00E94FF
:101D2000000463EB74E03DCFC9018D5291408336CE
:101D30009105C8F50E94420361E080E00E94EB0338
:101D400082E794E00E94000461E080E00E94EC01E0
:101D500060E082E00E94EC0161E083E00E94EC011F
:101D600060E084E00E94EC0161E085E00E94EC010B
:101D700061E086E00E94EC0161E087E00E94EC01F6
:101D800060E080E00E94EB0384E192E00E940004A6
:101D900060E085E00E94EB038CEC92E00E9400047E
:101DA00061EC74E0FECE215931402336310508F054
:101DB00042C80E94420361E080E00E94EB0382E798
:101DC00094E00E94000461E080E00E94EC0160E089
:101DD00082E00E94EC0161E083E00E94EC0160E09F
:101DE00084E00E94EC0161E085E00E94EC0161E08A
:101DF00086E00E94EC0161E087E00E94EC0160E077
:101E000080E00E94EB038DE292E00E94000460E01B
:101E100085E00E94EB0389E393E00E9400046FECED
:101E200074E0BFCEAB2809F006C8CD2809F003C87E
:101E3000012B11F00C941B07452B11F00C941B0780
:101E400060E080E00E94EB038BED94E00E940004D0
:101E500061E080E00E94EB038FEE94E00E940004BA
:101E600060E080E00E94EC0160E082E00E94EC0112
:101E700060E083E00E94EC0160E084E00E94EC01FD
:101E800060E085E00E94EC0160E086E00E94EC01E9
:101E900060E087E00E94EC010C941B078CEA95E05F
:101EA0000E94F00482EB95E00E94F00488EB95E03C
:101EB0000E94F0048EEB95E00C94F0042F923F9278
:101EC0004F925F926F927F928F929F92AF92BF924A
:101ED000CF92DF92EF92FF920F931F93CF93DF93F6
:101EE000CDB7DEB7CA1BDB0B0FB6F894DEBF0FBE53
:101EF000CDBF09942A88398848885F846E847D84A0
:101F00008C849B84AA84B984C884DF80EE80FD80A1
:101F10000C811B81AA81B981CE0FD11D0FB6F89417
:101F2000DEBF0FBECDBFED010895EE0FFF1F059080
:101F3000F491E02D09940F931F93CF93DF93823098
:101F4000910510F482E090E0E091DE05F091DF056C
:101F500030E020E0B0E0A0E0309799F421153105A1
:101F600009F44AC0281B390B24303105D8F58A8181
:101F70009B816115710589F1FB0193838283FE01C9
:101F800011C0408151810281138148175907E0F047
:101F90004817590799F4109761F012960C9312970D
:101FA00013961C933296CF01DF91CF911F910F9121
:101FB00008950093DE051093DF05F4CF2115310558
:101FC00051F04217530738F0A901DB019A01BD0116
:101FD000DF01F801C1CFEF01F9CF9093DF058093C6
:101FE000DE05CDCFFE01E20FF31F819391932250C6
:101FF000310939832883D7CF2091DC053091DD0565
:10200000232B41F420910201309103013093DD052F
:102010002093DC052091000130910101211531054B
:1020200041F42DB73EB74091040150910501241BA6
:10203000350BE091DC05F091DD05E217F307A0F424
:102040002E1B3F0B2817390778F0AC014E5F5F4F0E
:102050002417350748F04E0F5F1F5093DD0540935E
:10206000DC05819391939FCFF0E0E0E09CCFCF938C
:10207000DF930097E9F0FC01329713821282A0915E
:10208000DE05B091DF05ED0130E020E01097A1F40E
:1020900020813181820F931F2091DC053091DD0575
:1020A0002817390709F061C0F093DD05E093DC05DE
:1020B000DF91CF910895EA01CE17DF07E8F54A8155
:1020C0005B819E0141155105B1F7E901FB83EA836C
:1020D00049915991C40FD51FEC17FD0761F4808118
:1020E00091810296840F951FE901998388838281EB
:1020F00093819B838A83F0E0E0E012968D919C911E
:1021000013970097B9F52D913C911197CD01029647
:10211000820F931F2091DC053091DD0528173907C8
:1021200039F6309751F51092DF051092DE05B09325
:10213000DD05A093DC05BCCFD383C28340815181F0
:10214000840F951FC817D90761F44E5F5F4F8881D0
:102150009981480F591F518340838A819B819383C2
:1021600082832115310509F0B0CFF093DF05E093AC
:10217000DE059ECFFD01DC01C0CF13821282D7CFD6
:10218000B0E0A0E0E6ECF0E10C94600F8C01009769
:1021900051F4CB010E949B0F8C01C801CDB7DEB773
:1021A000E0E10C947C0FFC01E60FF71F9C0122502C
:1021B0003109E217F30708F49DC0D901CD91DC91F4
:1021C0001197C617D70798F0C530D10530F3CE0167
:1021D00004978617970708F3C61BD70B2297C1935E
:1021E000D1936D937C93CF010E943710D6CF5B01C2
:1021F000AC1ABD0A4C018C0E9D1EA091DE05B0915B
:10220000DF05512C412CF12CE12C109731F58091F8
:10221000DC059091DD058815990509F05CC046162E
:10222000570608F058C08091000190910101009775
:1022300041F48DB79EB74091040150910501841B74
:10224000950BE817F90708F055C0F093DD05E0930A
:10225000DC05F90171836083A0CF8D919C9111976A
:1022600012966C90129713967C901397A815B90547
:1022700059F56C0142E0C40ED11CCA14DB0420F1F4
:10228000AC014A195B09DA011296159780F0628257
:10229000738251834083D9016D937C93E114F104DF
:1022A00071F0D7011396FC93EE93129776CF229696
:1022B0008C0F9D1FF90191838083F301EFCFF09381
:1022C000DF05E093DE0569CF4816590608F42C01B6
:1022D0007D01D3019ACFCB010E949B0F7C01009717
:1022E00049F0AE01B8010E947D11C8010E9437106B
:1022F000870153CF10E000E050CFFB01DC0102C0AA
:1023000001900D9241505040D8F70895FB01DC0137
:1023100001900D920020E1F7089510E0C2E6D0E0B0
:1023200004C0FE010E94950F2196C336D107C9F75C
:04233000F894FFCF4F
:102334000000E0058000000000002D018D00BA00BF
:102344007A01EB00C900DD0000000000FA038D00F3
:10235400A302A2025F5F00454E45524759204D4FEC
:102364004E49544F52494E47002620434F4E545233
:102374004F4C4C494E4700534F4C41525F434F4ED4
:102384004E00553A302000555F30002C203020524A
:10239400757065657320536176696E6720414D4F92
:1023A400554E542000553A312000432D342E382008
:1023B40000553D315F436F73743D342E38002C203B
:1023C400342E382052757065657320536176696EBA
:1023D4006720414D4F554E542000553A322000435A
:1023E4002D392E362000553D325F436F73743D39CD
:1023F4002E36002C392E36205275706565732053A5
:102404006176696E6720414D4F554E542000553A10
:102414003300432D31342E3400553D335F436F7305
:10242400743D31342E34002C2031392E3220527533
:102434007065657320536176696E6720414D4F5511
:102444004E542000553A3400432D31392E32005574
:102454003D345F436F73743D31392E3200553A3544
:1024640000432D323400553D355F436F73743D3264
:1024740034002C32342052757065657320536176B4
:10248400696E6720414D4F554E542000553A360031
:10249400432D32382E3800553D365F436F73743DFB
:1024A40032382E38002C2032382E38205275706580
:1024B400657320536176696E6720414D4F554E54C4
:1024C4002000553A3700432D33332E3600553D371F
:1024D4005F436F73743D33332E36002C2033332E19
:1024E400362052757065657320536176696E672076
:1024F400414D4F554E542000553A3800432D333842
:102504002E3400553D385F436F73743D33382E3499
:10251400002C2033382E3420527570656573205397
:102524006176696E6720414D4F554E542000553AEF
:102534003900432D34332E3200553D395F436F73D8
:10254400743D34332E32002C2034332E3220527515
:102554007065657320536176696E6720414D4F55F0
:102564004E542000553A313000432D343800553D47
:1025740031305F436F73743D3438002C203438207D
:1025840052757065657320536176696E6720414D9D
:102594004F554E5420005374696C6C20436F6E6E1B
:1025A40065637400536F6C617200536F6C617220C9
:1025B400434F4E4E454354454420202020202020A4
:1025C4002020202020200047524944204E4F524DC5
:1025D400414C20696E746F20534F4C415220434F3D
:1025E4004E4E4543544544200047524944204E4FE3
:1025F400524D414C0047524944204E4F524D414C9C
:1026040020434F4E4E45435445442000474E5F639C
:102614006F6E6E656374696F6E00432D31342E34B2
:1026240020004C494D5420434F4D504C4554454493
:10263400004752494400553D30202C20436F7374A9
:10264400203D203020202000553D305F436F7374BF
:102654003D302047524944205045414B204C494D80
:102664005420434F4D504C455445442000534F4C47
:10267400415220434F4E4E45435445440047505F1A
:10268400436F6E6E65637400475249442050454160
:102694004B2054494D4520434F4E4E4543544544E9
:1026A400200047505F636F6E6E656374696F6E00E0
:1026B400432D20392E362000553D315F436F73740E
:1026C4003D392E3600432D31392E322000553D320E
:1026D4005F436F73743D31392E3200432D32382EEF
:1026E400382000553D335F436F73743D32382E38C4
:1026F40000553D345F436F73743D33382E340055B9
:102704003D355F436F73743D343800202020202012
:102714002020202020202020202020202020004EA7
:102724004F5F434F4E4E454354494F4E2020202087
:062734002020000D0A0048
:00000001FF
